:060000000A128A11122809
:10000800FE00030EF2000408F3000A08F40083124D
:1000180003137F08F5000A128A113D2E0A128A116D
:10002800942E0A128A110B260A128A1183120313BC
:10003800C70100300A128A1137230A128A112428AC
:1000480083120313851E29282A282D280615000047
:100058003028061100003028F608031D34283528FA
:1000680040287A08013A031D3A283B284028831281
:100078000313061400004A2883120313B708031D4C
:10008800462847284A28061000004A2883120313E6
:10009800CE0146304E02031C5228532855286E289C
:1000A8006E2803300A128A1192250A128A118312C5
:1000B80003134508A2070318A30A4608A30701303B
:1000C800CD004D08CE0746304E02031C6C286D2823
:1000D80055286E284630C5000030C6002308C801E0
:1000E800C8072208C701C7070A128A1142250A123F
:1000F8008A11831203134608A301A3074508A20126
:10010800A207851E8828892899280230230253309F
:1001180003192202031891289228952886150000B1
:10012800E92886110000E928E92801308312031321
:100138002302FE30031922020318A328A428C12889
:1001480086150000323083120313C5000030C60044
:100158000A128A11D7250A128A11831203138611EB
:100168000000323083120313C5000030C6000A12A3
:100178008A11D7250A128A11E9280130831203133C
:100188002302FE3003192202031CCB28CC28D828CE
:10019800023023025330031922020318D428D52829
:1001A800D82886150000E928023083120313230299
:1001B800533003192202031CE228E328E928861198
:1001C8000000E928E928E928E928831203133A08F6
:1001D800013A031DF028F1280429FA08031DF5281F
:1001E800F6280429071400008312031305160000DB
:1001F8008312031386160000F9010314F90D04296C
:10020800831203133A08023A031D0B290C293329D8
:10021800FA08031D102911293329051500000A3091
:1002280083120313C5000030C6000A128A11D725AD
:100238000A128A1183120313051100008312031393
:100248000710000083120313051200008312031322
:1002580086120000F90183120313BA0133298518A5
:1002680036293729032A7908013A031D3C293D29F3
:10027800032A3708013A031D42294329CF2983124B
:100288000317051464008529FA010314FA0DF60111
:100298000314F60D333083120313CD004D08C70045
:1002A80003300A128A1137230A128A110130831285
:1002B8000313C5000030C6000A128A11D7250A1296
:1002C8008A114C3083120313CD004D08C700043047
:1002D8000A128A1137230A128A1101308312031372
:1002E800C5000030C6000A128A11D7250A128A11E1
:1002F80083120313B6010314B60DC4010314C40D0D
:100308008C29831203133608031D8B2948298C294D
:10031800BE08031D902991299E294408013A031D0E
:10032800962997299E2964000A128A11E6240A123E
:100338008A112428831203134008013A031DA529B2
:10034800A6292428BD010314BD0DB908031DAD2934
:10035800AE29BC290A128A112D220A128A11831287
:100368000313B9010314B90DB5010314B50DBC2964
:10037800F6010A302F028C3003192E02031CC529FE
:10038800C62924280A128A116C260A128A112428DE
:10039800242824282428831203133708023A031D2B
:1003A800D629D7292428640083120313BD01031416
:1003B800BD0DB5010314B50DB908031DE429E529E0
:1003C800F0290A128A112D220A128A1183120313A4
:1003D800B9010314B90DF029F6010A302F028C3047
:1003E80003192E02031CF929FA2924280A128A1152
:1003F8006C260A128A112428242824282428851CDB
:10040800062A072A0F2AC70100300A128A11372341
:100418000A128A112428851C122A132A242836082D
:10042800013A031D182A192A24281A2A83120313A9
:10043800C70100300A128A1137230A128A111A2AB0
:100448001A2A242824282428242824280A128A112D
:100458001228FC3083120313CB004B08C700083066
:100468000A128A1137230A128A110A3083120313D7
:10047800C5000030C6000A128A11D7250A128A114F
:1004880064009E3083120313CB004B08C70007306B
:100498000A128A1137230A128A110A3083120313A7
:1004A800C5000030C6000A128A11D7250A128A111F
:1004B8006400663083120313CB004B08C700063074
:1004C8000A128A1137230A128A110A308312031377
:1004D800C5000030C6000A128A11D7250A128A11EF
:1004E8006400703083120313CB004B08C70005303B
:1004F8000A128A1137230A128A110A308312031347
:10050800C5000030C6000A128A11D7250A128A11BE
:100518006400D63083120313CB004B08C7000330A6
:100528000A128A1137230A128A110A308312031316
:10053800C5000030C6000A128A11D7250A128A118E
:1005480064006B3083120313CB004B08C7000230E2
:100558000A128A1137230A128A110A3083120313E6
:10056800C5000030C6000A128A11D7250A128A115E
:100578006400A33083120313CB004B08C70001307B
:100588000A128A1137230A128A110A3083120313B6
:10059800C5000030C6000A128A11D7250A128A112E
:1005A8006400643083120313CB004B08C70000308B
:1005B8000A128A1137230A128A110A308312031386
:1005C800C5000030C6000A128A11D7250A128A11FE
:1005D8006400323083120313CB004B08C70000308D
:1005E8000A128A1137230A128A110A308312031356
:1005F800C5000030C6000A128A11D7250A128A11CE
:100608006400143083120313CB004B08C70000307A
:100618000A128A1137230A128A110A308312031325
:10062800C5000030C6000A128A11D7250A128A119D
:10063800640083120313C70100300A128A1137239A
:100648000A128A110A3083120313C5000030C6004B
:100658000A128A11D7250A128A1164008312031319
:1006680010148B17080083120313C800C901CA01AC
:100678008C11831603131114572B01308312C907E9
:100688000318CA0A0030CA074A08803AFF008330B4
:100698007F02031D512BE9304902031C542B552BB3
:1006A800572B5E2B5E2B831203138C1D5C2B5D2B4B
:1006B800412B5E2B83120313C901CA018C11983098
:1006C80093000130C5000030C6000A128A111F27A6
:1006D8000A128A11862B013083120313C9070318E3
:1006E800CA0A0030CA074A08803AFF0083307F02EE
:1006F800031D802BE9304902031C832B842B862B96
:100708008D2B8D2B831203138C1D8B2B8C2B6F2B16
:100718008D2B83120313C901CA018C114808930059
:100728000130C5000030C6000A128A111F270A12BC
:100738008A11B52B013083120313C9070318CA0A9B
:100748000030CA074A08803AFF0083307F02031D41
:10075800AF2BE9304902031CB22BB32BB52BBC2BB2
:10076800BC2B831203138C1DBA2BBB2B9E2BBC2BCB
:1007780083120313C901CA018C1147089300013081
:10078800C5000030C6000A128A111F270A128A11F2
:10079800E42B013083120313C9070318CA0A003077
:1007A800CA074A08803AFF0083307F02031DDE2B08
:1007B800E9304902031CE12BE22BE42BEB2BEB2B5A
:1007C800831203138C1DE92BEA2BCD2BEB2B831201
:1007D8000313C901CA018C118316031311150A2CBE
:1007E80001308312C9070318CA0A0030CA074A0829
:1007F800803AFF0083307F02031D042CE930490250
:10080800031C072C082C0A2C112C112C83120313FF
:100818008C1D0F2C102CF42B112C83120313C901DF
:10082800CA018C1108000030831203130C18013020
:10083800F0007008F1000C10B0308E003C308F00D2
:100848008518272C282C5B2C7908013A031D2D2CA0
:100858002E2C5B2CB508031D322C332C5B2C861CEC
:10086800362C372C382CB80186183B2C3C2C582CAD
:10087800B808031D402C412C582C0130F00070089A
:10088800F80764007808283A031D4B2C4C2C5B2C85
:100898000130F000700883120313B707F801B8019C
:1008A8000314B80D5B2C5B2CF8015B2C5B2CFA084D
:1008B800031D5F2C602C8A2C83120313871C652C64
:1008C800662C672CBB0187186A2C6B2C872CBB08FD
:1008D800031D6F2C702C872C0130F0007008BC07AA
:1008E8006400831203133C08283A031D7C2C7D2CDA
:1008F8008A2C0130F0007008BA07BC01BB01031450
:10090800BB0D8A2C8A2CBC018A2C8A2C83120313D7
:100918003D08013A031D912C922C982C0130AE070A
:100928000318AF0A0030AF077608013A031D9D2C63
:100938009E2CE02C0130AC070318AD0A0030AD073F
:1009480017302D02703003192C02031CAC2CAD2C6F
:10095800B62CBE010314BE0DC0010314C00DAC01BA
:10096800AD01B62C01302D02913003192C02031C65
:10097800BE2CBF2CDD2C0130B2070318B30A00309F
:10098800B307143032063304031DCB2CCC2CDE2CD9
:100998000310061C03140318D22CD62C831203133D
:1009A8000614D92C831203130610B201B301DE2CEE
:1009B800DE2C06140000E52C83120313AC01AD01F4
:1009C800E52C0800E82CE82C831203135108031DBA
:1009D800EE2CE82CD1018B13003029021A300319B0
:1009E8002802031CF82CF92C182D4F08013ECF00C3
:1009F80050080318013E003ED0005008CB004B08B9
:100A0800C1004F08CB004B08C2004208CB004B087E
:100A1800C70041080A128A1137230A128A11831261
:100A28000313A601A701182D003029020A30031963
:100A380028020318202D212D402D4F08FF3ECF00FE
:100A480050080318013EFF3ED0005008CB004B0869
:100A5800C1004F08CB004B08C2004208CB004B082E
:100A6800C70041080A128A1137230A128A11831211
:100A78000313A601A701402D8B1708008312031347
:100A8800CB01CC014608450403194B2D4C2D8A2D6A
:100A9800CA010314CA0D5C2D01300310C50DC60D23
:100AA800FF3E031D512D0130C9004908CA075C2DBE
:100AB800C61F5F2D602D502D622D622D0130031051
:100AC800CB0DCC0DFF3E031D632D46084802031DC8
:100AD8006F2D45084702031C722D732D7B2D450889
:100AE800C7024608031CC803C8024B147B2D0130FB
:100AF8000310C60CC50CFF3E031D7C2D0130CA0235
:100B0800031D872D882D622D8A2D8A2D4C08C6013C
:100B1800C6074B08C501C507912D080083120313AA
:100B2800C9000F30C7004708C9054908C700013088
:100B38000310C70DFF3E031D9C2D0310470D813E7A
:100B48009F00831603130C13831203130C138316CD
:100B580003139E01831203139E019F14B32D0C1FD0
:100B6800B62DB72DB32DB82D831603131E08831287
:100B78000313C700C8014708A0004808A1001E08C1
:100B8800C700C8014708C800C7014708A0070318DD
:100B9800A10A4808A1072108C601C6072008C501FF
:100BA800C507D62D080083120313C701C801FF2DFE
:100BB800C901CA0106304A02403003194902031C20
:100BC800E62DE72DE92DF92DF92D0130C907031878
:100BD800CA0A0030CA0706304A02403003194902DF
:100BE800031CF72DF82DE92DF92D0130C70703183F
:100BF800C80A0030C80746084802031D052E4508E4
:100C08004702031C082E092EDC2D0A2E08000A12A2
:100C18008A117C270A128A110A128A110A270A12D3
:100C28008A110A128A1163270A128A110A128A1172
:100C380033270A128A110A128A1145270A128A11C1
:100C48000A128A11F4260A128A110A128A115527E1
:100C58000A128A110A128A1175270A128A110B17A9
:100C68008312031310148B17163083120317850091
:100C780008000B1C402E412E472E0A128A11B92655
:100C88000A128A11472E831203138C1C4C2E4D2EE8
:100C9800532E0A128A11DB260A128A11532E831246
:100CA80003130C1C582E592E5F2E0A128A11172472
:100CB8000A128A115F2E750883120313FF00740845
:100CC8008A0073088400720E8300FE0E7E0E0900EF
:100CD80083120313C401C001BE01B601FA017E30BC
:100CE800CF000430D000BD01AE01AF0105150000F2
:100CF8000A3083120313C5000030C6000A128A1195
:100D0800D7250A128A1183120313051100008312D2
:100D18000313B701B901B5018312031705100800C1
:100D2800FB01F601F701F801F901FA0183132030FC
:100D3800840045300A128A116D270A128A110A1294
:100D48008A1181270A128A11CF000A128A11822772
:100D58000A128A11D0000A128A1183270A128A11EC
:100D6800D10083010A128A11152883120313060879
:100D7800F0007008F1000B100130F0007008F70760
:100D88007708033A031DC92ECA2ED82EF70112116F
:100D9800D1010314D10D2708A901A9072608A80124
:100DA800A807A601A701DA2E1215DA2E0800831269
:100DB80003138C1091010130A6070318A70A00300D
:100DC800A707013027022C3003192602031CED2E39
:100DD800EE2EF32E2C30A6000130A700F32E0800CB
:100DE80008308316031788008030831603139F008A
:100DF8009E01831203139E01831603130C130B1712
:100E0800831203130C139F141F1408008312031377
:100E180085018601EB3083160313850012308600A6
:100E2800831203138701E2308316031387008316A6
:100E3800031789010800292F013083120313C50203
:100E48000030031CC603C602292F83120313460869
:100E58004504031D302F312F202F322F0800831215
:100E680003139001901010169012B0308E003C3091
:100E78008F00831603130C14831203130C10101025
:100E8800080083160313871507168030940028304E
:100E980083120313940083160313910113309300F4
:100EA80008008312031392019101C73083160313BC
:100EB80092008C14831203138C10121108008630D0
:100EC800831603138100FF308312031381008B12F2
:100ED800080064008001840A04060319003404062B
:100EE8006E2F10308316031396008B150B10080015
:100EF8007130831603138F0008007E3404340134E4
:04400E00F5EFFFFFCC
:00000001FF
