:060000000A128A11122809
:10000800FE00030EF2000408F3000A08F40083124D
:1000180003137F08F5000A128A11E22D0A128A11C9
:10002800672E0A128A1111260A128A1112308312B7
:10003800031785001F2883120313851E24282528EB
:100048002828061500002B28061100002B28F60882
:10005800031D2F2830283B287A08013A031D35282C
:1000680036283B2883120313061400004528831200
:100078000313B708031D412842284528061000002D
:10008800452883120313CE0146304E02031C4D2827
:100098004E2850286928692803300A128A116925D0
:1000A8000A128A11831203134508A2070318A30A28
:1000B8004608A3070130CD004D08CE0746304E0252
:1000C800031C67286828502869284630C500003076
:1000D800C6002308C801C8072208C701C7070A12B3
:1000E8008A1119250A128A11831203134608A301DB
:1000F800A3074508A201A20701302302FE30031915
:100108002202031888288928A528851A8C288D2872
:10011800D4280310861D03140318932897288312E4
:10012800031386159A288312031386113230C500EB
:100138000030C6000A128A11AE250A128A11D42884
:10014800D4280230831203132302543003192202E5
:10015800031CAF28B028B32886110000D428023029
:100168008312031323024430031922020318BD2803
:10017800BE28D428023023021D3003192202031C92
:10018800C628C728D428851ECA28CB28CE28861575
:100198000000D42886110000D428D428D428D428D4
:1001A800831203133A08013A031DDB28DC28EF28E1
:1001B800FA08031DE028E128EF280714000083123D
:1001C8000313051600008312031386160000F901B5
:1001D8000314F90DEF28831203133A08023A031D9A
:1001E800F628F7281E29FA08031DFB28FC281E29D3
:1001F800051500000A3083120313C5000030C6003D
:100208000A128A11AE250A128A11831203130511E4
:100218000000831203130710000083120313051252
:1002280000008312031386120000F90183120313DE
:10023800BA011E29851821292229EF297908013AAE
:10024800031D27292829EF29831203170514831270
:1002580003133708013A031D32293329BB296400E7
:100268007229FA010314FA0DF6010314F60D33305E
:1002780083120313CD004D08C70003300A128A11F8
:1002880018230A128A11013083120313C5000030A3
:10029800C6000A128A11AE250A128A114C3083123E
:1002A8000313CD004D08C70004300A128A11182321
:1002B8000A128A11013083120313C5000030C600E8
:1002C8000A128A11AE250A128A1183120313B60183
:1002D8000314B60DC4010314C40D79298312031342
:1002E8003608031D782935297929BE08031D7D297B
:1002F8007E298A294408013A031D832984298A29E9
:100308000A128A11BD240A128A111F2883120313A4
:100318004008013A031D912992291F28BD010314A1
:10032800BD0DB908031D99299A29A8290A128A110D
:1003380019220A128A1183120313B9010314B90D81
:10034800B5010314B50DA829F6010A302F028C3027
:1003580003192E02031CB129B2291F280A128A1177
:100368003F260A128A111F281F281F281F288312B8
:1003780003133708023A031DC229C3291F28640042
:1003880083120313BD010314BD0DB5010314B50D8C
:10039800B908031DD029D129DC290A128A1119228A
:1003A8000A128A1183120313B9010314B90DDC2947
:1003B800F6010A302F028C3003192E02031CE5299E
:1003C800E6291F280A128A113F260A128A111F28B5
:1003D8001F281F281F28851CF229F329FB29C7017C
:1003E80000300A128A1118230A128A111F28851C44
:1003F800FE29FF291F283608013A031D042A052A69
:100408001F28062A83120313C70100300A128A1113
:1004180018230A128A11062A062A1F281F281F28AD
:100428001F281F280A128A111228FC30831203136E
:10043800CB004B08C70008300A128A1118230A1289
:100448008A11643083120313C5000030C6000A12F3
:100458008A11AE250A128A119E3083120313CB002B
:100468004B08C70007300A128A1118230A128A118A
:10047800643083120313C5000030C6000A128A11C3
:10048800AE250A128A11663083120313CB004B087B
:10049800C70006300A128A1118230A128A1164301A
:1004A80083120313C5000030C6000A128A11AE2554
:1004B8000A128A11703083120313CB004B08C7004D
:1004C80005300A128A1118230A128A11643083121D
:1004D8000313C5000030C6000A128A11AE250A129D
:1004E8008A11D63083120313CB004B08C7000330A0
:1004F8000A128A1118230A128A116430831203130C
:10050800C5000030C6000A128A11AE250A128A11E7
:100518006B3083120313CB004B08C70002300A125A
:100528008A1118230A128A11643083120313C50032
:100538000030C6000A128A11AE250A128A11A330A9
:1005480083120313CB004B08C70001300A128A112B
:1005580018230A128A11643083120313C50000306D
:10056800C6000A128A11AE250A128A116430831253
:100578000313CB004B08C70000300A128A11182356
:100588000A128A11643083120313C5000030C600B2
:100598000A128A11AE250A128A1132308312031305
:1005A800CB004B08C70000300A128A1118230A1220
:1005B8008A11643083120313C5000030C6000A1282
:1005C8008A11AE250A128A11143083120313CB0044
:1005D8004B08C70000300A128A1118230A128A1120
:1005E800643083120313C5000030C6000A128A1152
:1005F800AE250A128A1183120313C70100300A12AA
:100608008A1118230A128A11643083120313C50051
:100618000030C6000A128A11AE250A128A11831206
:10062800031310148B17080083120313C800C901A1
:10063800CA018C11831603131114382B013083124D
:10064800C9070318CA0A0030CA074A08803AFF00D7
:1006580083307F02031D322BE9304902031C352BFE
:10066800362B382B3F2B3F2B831203138C1D3D2B2E
:100678003E2B222B3F2B83120313C901CA018C1175
:10068800983093000130C5000030C6000A128A1164
:10069800F2260A128A11672B013083120313C90745
:1006A8000318CA0A0030CA074A08803AFF00833094
:1006B8007F02031D612BE9304902031C642B652B63
:1006C800672B6E2B6E2B831203138C1D6C2B6D2BDB
:1006D800502B6E2B83120313C901CA018C114808D1
:1006E80093000130C5000030C6000A128A11F226B4
:1006F8000A128A11962B013083120313C9070318B3
:10070800CA0A0030CA074A08803AFF0083307F02CD
:10071800031D902BE9304902031C932B942B962B35
:100728009D2B9D2B831203138C1D9B2B9C2B7F2BA6
:100738009D2B83120313C901CA018C11470893002A
:100748000130C5000030C6000A128A11F2260A12CA
:100758008A11C52B013083120313C9070318CA0A6B
:100768000030CA074A08803AFF0083307F02031D21
:10077800BF2BE9304902031CC22BC32BC52BCC2B42
:10078800CC2B831203138C1DCA2BCB2BAE2BCC2B5B
:1007980083120313C901CA018C118316031311159F
:1007A800EB2B01308312C9070318CA0A0030CA07A5
:1007B8004A08803AFF0083307F02031DE52BE930A9
:1007C8004902031CE82BE92BEB2BF22BF22B8312AB
:1007D80003138C1DF02BF12BD52BF22B8312031353
:1007E800C901CA018C1108000030831203130C18C8
:1007F8000130F0007008F1000C10B0308E003C3071
:100808008F008518082C092C392C7908013A031D0A
:100818000E2C0F2C392CB508031D132C142C392C35
:10082800861C172C182C192CB80186181C2C1D2C6A
:10083800362CB808031D212C222C362C0130F00050
:100848007008F8077808283A031D2B2C2C2C392C13
:100858000130F0007008B707F801B8010314B80DAB
:10086800392C392CF801392C392CFA08031D3D2C68
:100878003E2C632C871C412C422C432CBB0187182F
:10088800462C472C602CBB08031D4B2C4C2C602C91
:100898000130F0007008BC073C08283A031D552CAD
:1008A800562C632C0130F0007008BA07BC01BB015C
:1008B8000314BB0D632C632CBC01632C632C3D0813
:1008C800013A031D682C692C6F2C0130AE07031800
:1008D800AF0A0030AF077608013A031D742C752C57
:1008E800B72C0130AC070318AD0A0030AD0717303C
:1008F8002D02703003192C02031C832C842C8D2CA0
:10090800BE010314BE0DC0010314C00DAC01AD013E
:100918008D2C01302D02913003192C02031C952CCB
:10092800962CB42C0130B2070318B30A0030B30771
:10093800143032063304031DA22CA32CB52C03104B
:10094800061C03140318A92CAD2C831203130614D8
:10095800B02C831203130610B201B301B52CB52CC9
:1009680006140000BC2C83120313AC01AD01BC2C8F
:100978000800BF2CBF2C831203135108031DC52C7C
:10098800BF2CD1018B13003029021A300319280219
:10099800031CCF2CD02CEF2C4F08013ECF00500861
:1009A8000318013E003ED0005008CB004B08C100A0
:1009B8004F08CB004B08C2004208CB004B08C700C9
:1009C80041080A128A1118230A128A118312031382
:1009D800A601A701EF2C003029020A3003192802CA
:1009E8000318F72CF82C172D4F08FF3ECF0050089E
:1009F8000318013EFF3ED0005008CB004B08C10051
:100A08004F08CB004B08C2004208CB004B08C70078
:100A180041080A128A1118230A128A118312031331
:100A2800A601A701172D8B17080083120313CB010A
:100A3800CC01460845040319222D232D612DCA0136
:100A48000314CA0D332D01300310C50DC60DFF3E2A
:100A5800031D282D0130C9004908CA07332DC61FB8
:100A6800362D372D272D392D392D01300310CB0D7B
:100A7800CC0DFF3E031D3A2D46084802031D462DA6
:100A880045084702031C492D4A2D522D4508C70227
:100A98004608031CC803C8024B14522D013003102A
:100AA800C60CC50CFF3E031D532D0130CA02031DA1
:100AB8005E2D5F2D392D612D612D4C08C601C607AD
:100AC8004B08C501C507682D080083120313C90028
:100AD8000F30C7004708C9054908C700013003108F
:100AE800C70DFF3E031D732D0310470D813E9F0068
:100AF800831603130C13831203130C1383160313A7
:100B08009E01831203139E019F148A2D0C1F8D2DA5
:100B18008E2D8A2D8F2D831603131E08831203131F
:100B2800C700C8014708A0004808A1001E08C70060
:100B3800C8014708C800C7014708A0070318A10A49
:100B48004808A1072108C601C6072008C501C5072E
:100B5800AD2D080083120313C701C801D62DC901A2
:100B6800CA0106304A02403003194902031CBD2D50
:100B7800BE2DC02DD02DD02D0130C9070318CA0AAB
:100B88000030CA0706304A02403003194902031CE4
:100B9800CE2DCF2DC02DD02D0130C7070318C80A80
:100BA8000030C80746084802031DDC2D45084702E7
:100BB800031CDF2DE02DB32DE12D08000B1CE52DC6
:100BC800E62DEC2D0A128A118C260A128A11EC2DB8
:100BD800831203138C1CF12DF22DF82D0A128A11A1
:100BE800AE260A128A11F82D831203130C1CFD2D50
:100BF800FE2D042E0A128A11F8230A128A11042ED5
:100C0800750883120313FF0074088A0073088400B0
:100C1800720E8300FE0E7E0E09000A128A114F27FB
:100C28000A128A110A128A11DD260A128A110A1278
:100C38008A1136270A128A110A128A1106270A12FD
:100C48008A110A128A1118270A128A110A128A119D
:100C5800C7260A128A110A128A1128270A128A112B
:100C68000A128A1148270A128A110B1783120313D2
:100C780010148B17080083120313C401C001BE01AE
:100C8800B601FA017E30CF000430D000BD01AE01BC
:100C9800AF01051500000A3083120313C5000030A8
:100CA800C6000A128A11AE250A128A11831203138A
:100CB8000511000083120313B701B901B5018312AE
:100CC800031705100800FB01F601F701F801F90107
:100CD800FA0183132030840045300A128A11402714
:100CE8000A128A110A128A1154270A128A11CF008D
:100CF8000A128A1155270A128A11D0000A128A117B
:100D080056270A128A11D10083010A128A1115285E
:100D1800831203130608F0007008F1000B1001306D
:100D2800F0007008F7077708033A031D9C2E9D2EE4
:100D3800AB2EF7011211D1010314D10D2708A90117
:100D4800A9072608A801A807A601A701AD2E121514
:100D5800AD2E0800831203138C1091010130A607F1
:100D68000318A70A0030A707013027022C300319FF
:100D78002602031CC02EC12EC62E2C30A600013020
:100D8800A700C62E08000830831603178800803095
:100D9800831603139F009E01831203139E0183167B
:100DA80003130C130B17831203130C139F141F1434
:100DB80008008312031385018601EB3083160313A1
:100DC800850012308600831203138701E2308316F0
:100DD800031387008316031789010800FC2E0130CE
:100DE80083120313C5020030031CC603C602FC2E7F
:100DF8008312031346084504031D032F042FF32E03
:100E0800052F0800831203139001901010169012FA
:100E1800B0308E003C308F00831603130C148312FD
:100E280003130C10101008008316031387150716F8
:100E38008030940028308312031394008316031320
:100E4800910113309300080083120313920191015A
:100E5800C7308316031392008C14831203138C106B
:100E6800121108008630831603138100FF308312A5
:100E7800031381008B12080064008001840A0406B1
:100E8800031900340406412F10308316031396000B
:100E98008B150B1008007130831603138F000800A0
:060EA8007E340434013425
:04400E00F5EFFFFFCC
:00000001FF
