:060000000A128A11122809
:10000800FE00030EF2000408F3000A08F40083124D
:1000180003137F08F5000A128A11B92D0A128A11F2
:10002800112E0A128A11E8250A128A111B28831236
:100038000313851E202821282428061500002728B8
:10004800061100002728F608031D2B282C2837281E
:100058007A08013A031D31283228372883120313FE
:1000680006140000412883120313B608031D3D2817
:100078003E28412806100000412883120313CD01B1
:1000880046304D02031C49284A284C286528652813
:1000980003300A128A1140250A128A1183120313A7
:1000A8004408A2070318A30A4508A3070130CC0097
:1000B8004C08CD0746304D02031C632864284C28A1
:1000C80065284630C4000030C5002308C701C707AB
:1000D8002208C601C6070A128A11F0240A128A11D8
:1000E800831203134508A301A3074408A201A2072A
:1000F80001302302FE3003192202031884288528C0
:10010800A128851A88288928D0280310861D031459
:1001180003188F28932883120313861596288312B1
:10012800031386113230C4000030C5000A128A1148
:1001380085250A128A11D028D02802308312031389
:100148002302543003192202031CAB28AC28AF2821
:1001580086110000D0280230831203132302443092
:10016800031922020318B928BA28D028023023021A
:100178001D3003192202031CC228C328D028851E5B
:10018800C628C728CA2886150000D028861100006E
:10019800D028D028D028D028831203133908013A50
:1001A800031DD728D828EB28FA08031DDC28DD28EA
:1001B800EB280714000083120313051600008312AE
:1001C800031386160000F9010314F90DEB288312B6
:1001D80003133908023A031DF228F3281A29FA08EA
:1001E800031DF728F8281A29051500000A3083127C
:1001F8000313C4000030C5000A128A1185250A12AB
:100208008A118312031305110000831203130710C8
:1002180000008312031305120000831203138612D1
:100228000000F90183120313B9011A2985181D2941
:100238001E291B287908013A031D232924291B2874
:100248003608013A031D29292A29C0297B297B2937
:10025800FA010314FA0DF6010314F60DC601003075
:100268000A128A11F3220A128A1101308312031327
:10027800C4000030C5000A128A1185250A128A11A5
:10028800333083120313CC004C08C60003300A1223
:100298008A11F3220A128A11013083120313C4004F
:1002A8000030C5000A128A1185250A128A114C30BD
:1002B80083120313CC004C08C60004300A128A11BA
:1002C800F3220A128A11013083120313C40000308A
:1002D800C5000A128A1185250A128A11831203138E
:1002E800B5010314B50DC3010314C30D80293508E6
:1002F800031D7F292C298029BD08031D84298529F0
:1003080091294308013A031D8A298B2991290A1248
:100318008A1194240A128A111B28831203133F0896
:10032800013A031D982999291B28BC010314BC0D07
:10033800B808031DA029A129AC290A128A11F421A1
:100348000A128A1183120313B8010314B80DAC29D9
:10035800F6010A302F06031DB3298C302E06031D23
:10036800B629B7291B280A128A1136260A128A11B9
:100378001B281B281B281B28831203133608023A44
:10038800031DC729C8291B28BC010314BC0DB808C4
:10039800031DCF29D029DB290A128A11F4210A1258
:1003A8008A1183120313B8010314B80DDB29F6016F
:1003B8000A302F06031DE2298C302E06031DE5297D
:1003C800E6291B280A128A1136260A128A111B28C6
:1003D8001B281B281B281B281B280A128A111228D5
:1003E800FC3083120313CA004A08C60008300A12F8
:1003F8008A11F3220A128A11643083120313C4008B
:100408000030C5000A128A1185250A128A119E3009
:1004180083120313CA004A08C60007300A128A1159
:10042800F3220A128A11643083120313C4000030C5
:10043800C5000A128A1185250A128A1166308312AC
:100448000313CA004A08C60006300A128A11F322AA
:100458000A128A11643083120313C4000030C500E5
:100468000A128A1185250A128A1170308312031321
:10047800CA004A08C60005300A128A11F3220A1275
:100488008A11643083120313C4000030C5000A12B5
:100498008A1185250A128A11D63083120313CA00DD
:1004A8004A08C60003300A128A11F3220A128A1176
:1004B800643083120313C4000030C5000A128A1185
:1004C80085250A128A116B3083120313CA004A0861
:1004D800C60002300A128A11F3220A128A11643005
:1004E80083120313C4000030C5000A128A1185253F
:1004F8000A128A11A33083120313CA004A08C600DD
:1005080001300A128A11F3220A128A116430831206
:100518000313C4000030C5000A128A1185250A1287
:100528008A11643083120313CA004A08C6000030D7
:100538000A128A11F3220A128A11643083120313F1
:10054800C4000030C5000A128A1185250A128A11D2
:10055800323083120313CA004A08C60000300A1258
:100568008A11F3220A128A11643083120313C40019
:100578000030C5000A128A1185250A128A11143022
:1005880083120313CA004A08C60000300A128A11EF
:10059800F3220A128A11643083120313C400003054
:1005A800C5000A128A1185250A128A1183120313BB
:1005B800C60100300A128A11F3220A128A11643025
:1005C80083120313C4000030C5000A128A1185255E
:1005D8000A128A118312031310148B17080083124E
:1005E8000313C700C801C9018C1183160313111422
:1005F800132B01308312C8070318C90A0030C90732
:100608004908803AFF0083307F02031D0D2BE93033
:100618004802031C102B112B132B1A2B1A2B831295
:1006280003138C1D182B192BFD2A1A2B8312031365
:10063800C801C9018C11983093000130C400003002
:10064800C5000A128A11C0260A128A11422B0130EB
:1006580083120313C8070318C90A0030C9074908D9
:10066800803AFF0083307F02031D3C2BE9304802AB
:10067800031C3F2B402B422B492B492B831203137E
:100688008C1D472B482B2B2B492B83120313C80196
:10069800C9018C11470893000130C4000030C5001F
:1006A8000A128A11C0260A128A11712B013083128C
:1006B8000313C8070318C90A0030C9074908803A54
:1006C800FF0083307F02031D6B2BE9304802031CB7
:1006D8006E2B6F2B712B782B782B831203138C1DA9
:1006E800762B772B5A2B782B83120313C801C90159
:1006F8008C11460893000130C4000030C5000A126E
:100708008A11C0260A128A11A02B01308312031302
:10071800C8070318C90A0030C9074908803AFF000A
:1007280083307F02031D9A2BE9304802031C9D2B5E
:100738009E2BA02BA72BA72B831203138C1DA52B55
:10074800A62B892BA72B83120313C801C9018C116F
:10075800831603131115C62B01308312C80703181B
:10076800C90A0030C9074908803AFF0083307F0270
:10077800031DC02BE9304802031CC32BC42BC62B16
:10078800CD2BCD2B831203138C1DCB2BCC2BB02B55
:10079800CD2B83120313C801C9018C110800003046
:1007A800831203130C180130F0007008F1000C10CC
:1007B800B0308E003C308F008518E32BE42B0F2CD3
:1007C8007908013A031DE92BEA2B0F2C861CED2B27
:1007D800EE2BEF2BB7018618F22BF32B0C2CB70856
:1007E800031DF72BF82B0C2C0130F0007008F807CC
:1007F8007808283A031D012C022C0F2C0130F00038
:100808007008B607F801B7010314B70D0F2C0F2CA9
:10081800F8010F2C0F2CFA08031D132C142C392C5B
:10082800871C172C182C192CBA0187181C2C1D2C66
:10083800362CBA08031D212C222C362C0130F0004E
:100848007008BB073B08283A031D2B2C2C2C392C8D
:100858000130F0007008B907BB01BA010314BA0DE2
:10086800392C392CBB01392C392C3C08013A031D91
:100878003E2C3F2C452C0130AE070318AF0A003040
:10088800AF077608013A031D4A2C4B2C8E2C0130F9
:10089800AC070318AD0A0030AD0717302D06031D4D
:1008A800572C70302C06031D5A2C5B2C642CBD0170
:1008B8000314BD0DBF010314BF0DAC01AD01642CC1
:1008C80001302D02913003192C02031C6C2C6D2C65
:1008D8008B2C0130B2070318B30A0030B307143069
:1008E80032063304031D792C7A2C8C2C0310061C39
:1008F80003140318802C842C831203130614872CEA
:10090800831203130610B201B3018C2C8C2C06142D
:100918000000932C83120313AC01AD01932C080043
:10092800962C962C831203135008031D9C2C962C8E
:10093800D0018B13003029021A3003192802031C36
:10094800A62CA72CC62C4E08013ECE004F08031833
:10095800013E003ECF004F08CA004A08C0004E08BA
:10096800CA004A08C1004108CA004A08C60040082F
:100978000A128A11F3220A128A1183120313A6019A
:10098800A701C62C003029020A30031928020318CF
:10099800CE2CCF2CEE2C4E08FF3ECE004F0803186D
:1009A800013EFF3ECF004F08CA004A08C0004E086B
:1009B800CA004A08C1004108CA004A08C6004008DF
:1009C8000A128A11F3220A128A1183120313A6014A
:1009D800A701EE2C8B17080083120313CA01CB0161
:1009E800450844040319F92CFA2C382DC9010314BD
:1009F800C90D0A2D01300310C40DC50DFF3E031D9E
:100A0800FF2C0130C8004808C9070A2DC51F0D2D45
:100A18000E2DFE2C102D102D01300310CA0DCB0DFC
:100A2800FF3E031D112D45084702031D1D2D4408D7
:100A38004602031C202D212D292D4408C6024508F5
:100A4800031CC703C7024A14292D01300310C50C23
:100A5800C40CFF3E031D2A2D0130C902031D352D8C
:100A6800362D102D382D382D4B08C501C5074A08DD
:100A7800C401C4073F2D080083120313C8000F30B8
:100A8800C6004608C8054808C60001300310C60D50
:100A9800FF3E031D4A2D0310460D813E9F0083161D
:100AA80003130C13831203130C13831603139E01F1
:100AB800831203139E019F14612D0C1F642D652D55
:100AC800612D662D831603131E0883120313C600B7
:100AD800C7014608A0004708A1001E08C600C701B4
:100AE8004608C700C6014608A0070318A10A470818
:100AF800A1072108C501C5072008C401C407842D22
:100B0800080083120313C601C701AD2DC801C9012E
:100B180006304902403003194802031C942D952DD4
:100B2800972DA72DA72D0130C8070318C90A003033
:100B3800C90706304902403003194802031CA52D95
:100B4800A62D972DA72D0130C6070318C70A003018
:100B5800C70745084702031DB32D44084602031C76
:100B6800B62DB72D8A2DB82D08000B1CBC2DBD2D18
:100B7800C32D0A128A115A260A128A11C32D83120A
:100B880003138C1CC82DC92DCF2D0A128A117C265F
:100B98000A128A11CF2D831203130C1CD42DD52DC4
:100BA800DB2D0A128A11D3230A128A11DB2D75084C
:100BB80083120313FF0074088A0073088400720EFE
:100BC8008300FE0E7E0E09000A128A1113270A12EC
:100BD8008A110A128A11AB260A128A110A128A117C
:100BE800D4260A128A110A128A11E6260A128A11D2
:100BF8000A128A1195260A128A110A128A11F626F1
:100C08000A128A110A128A110C270A128A110B1762
:100C18008312031310148B170800FB01F601F70168
:100C2800F801F901FA0183132030840044300A12D4
:100C38008A1104270A128A110A128A1118270A121D
:100C48008A11CE000A128A1119270A128A11CF00B6
:100C58000A128A111A270A128A11D00083010A126D
:100C68008A11152883120313C301BF01BD01B50101
:100C7800FA017E30CE000430CF00BC01AE01AF01D6
:100C8800051500000A3083120313C4000030C500A4
:100C98000A128A1185250A128A1183120313051173
:100CA800000083120313B601B8010800831203136E
:100CB8000608F0007008F1000B100130F000700811
:100CC800F7077708033A031D6A2E6B2E792EF70172
:100CD8001211D0010314D00D2708A901A90726086D
:100CE800A801A807A601A7017B2E12157B2E0800D4
:100CF800831203138C1091010130A6070318A70A69
:100D08000030A707013027022C3003192602031CE4
:100D18008E2E8F2E942E2C30A6000130A700942EF4
:100D280008000830831603178800803083160313E1
:100D38009F009E01831203139E01831603130C1355
:100D48000B17831203130C139F141F14080083122C
:100D5800031385018601EB308316031385001230D7
:100D68008600831203138701E2308316031387007A
:100D78008316031789010800CA2E01308312031352
:100D8800C4020030031CC503C502CA2E8312031314
:100D980045084404031DD12ED22EC12ED32E08009F
:100DA800831203139001901010169012B0308E0029
:100DB8003C308F00831603130C14831203130C109A
:100DC8001010080083160313871507168030940047
:100DD80028308312031394008316031391011330F0
:100DE800930008008312031392019101C730831600
:100DF800031392008C14831203138C101211080031
:100E080064008001840A0406031900340406052FCF
:100E180010308316031396008B150B1008007130E1
:0E0E2800831603138F0008007E340434013457
:04400E00F5EFFFFFCC
:00000001FF
