:060000000A128A11122809
:10000800FE00030EF2000408F3000A08F40083124D
:1000180003137F08F5000A128A11492E0A128A1161
:10002800A02E0A128A1117260A128A1183120313A4
:10003800C70100300A128A1143230A128A112428A0
:1000480083120313851E29282A282D280615000047
:100058003028061100003028F608031D34283528FA
:1000680040287A08013A031D3A283B284028831281
:100078000313061400004A2883120313B708031D4C
:10008800462847284A28061000004A2883120313E6
:10009800CE0164304E02031C5228532855286E287E
:1000A8006E2803300A128A119E250A128A118312B9
:1000B80003134508A2070318A30A4608A30701303B
:1000C800CD004D08CE0764304E02031C6C286D2805
:1000D80055286E286430C5000030C6002308C801C2
:1000E800C8072208C701C7070A128A114E250A1233
:1000F8008A11831203134608A301A3074508A20126
:10010800A207851E88288928A528023023024E3098
:1001180003192202031891289228952886150000B1
:10012800F5280230831203132302543003192202E4
:10013800031C9F28A028F52886110000F528F5281B
:10014800F5280130831203132302FE30031922021B
:100158000318AF28B028CD28861500003230831246
:100168000313C5000030C6000A128A11E3250A12DB
:100178008A1183120313861100003230831203138D
:10018800C5000030C6000A128A11E3250A128A1136
:10019800F5280130831203132302FE3003192202CB
:1001A800031CD728D828E428023023025330031927
:1001B80022020318E028E128E42886110000F52827
:1001C8000230831203132302583003192202031C3E
:1001D800EE28EF28F52886110000F528F528F528DF
:1001E800F528831203133A08013A031DFC28FD2859
:1001F8001029FA08031D01290229102907140000F3
:1002080083120313051600008312031386160000D9
:10021800F9010314F90D1029831203133A08023A5D
:10022800031D172918293F29FA08031D1C291D2910
:100238003F29051500000A3083120313C50000305A
:10024800C6000A128A11E3250A128A1183120313BF
:100258000511000083120313071000008312031313
:10026800051200008312031386120000F90183129D
:100278000313BA013F298518422943290F2A79080F
:10028800013A031D482949290F2A3708013A031D55
:100298004E294F29DB29831203170514640091297D
:1002A800FA010314FA0DF6010314F60D3330831224
:1002B8000313CD004D08C70003300A128A114323E7
:1002C8000A128A11013083120313C5000030C600D8
:1002D8000A128A11E3250A128A114C308312031379
:1002E800CD004D08C70004300A128A1143230A12B0
:1002F8008A11013083120313C5000030C6000A12A8
:100308008A11E3250A128A1183120313B601031412
:10031800B60DC4010314C40D9829831203133608BB
:10032800031D972954299829BE08031D9C299D2936
:10033800AA294408013A031DA229A329AA2964006D
:100348000A128A11F2240A128A112428831203132A
:100358004008013A031DB129B2292428BD0103141C
:10036800BD0DB908031DB929BA29C8290A128A116D
:1003780039220A128A1183120313B9010314B90D21
:10038800B5010314B50DC829F6010A302F028C30C7
:1003980003192E02031CD129D22924280A128A11F2
:1003A80078260A128A11242824282428242883122B
:1003B80003133708023A031DE229E32924286400BD
:1003C80083120313BD010314BD0DB5010314B50D4C
:1003D800B908031DF029F129FC290A128A113922CA
:1003E8000A128A1183120313B9010314B90DFC29E7
:1003F800F6010A302F028C3003192E02031C052A3D
:10040800062A24280A128A1178260A128A11242810
:10041800242824282428851C122A132A1B2AC701C9
:1004280000300A128A1143230A128A112428851CD3
:100438001E2A1F2A24283608013A031D242A252AA1
:100448002428262A83120313C70100300A128A11AE
:1004580043230A128A11262A262A242824282428F3
:10046800242824280A128A111228FC308312031324
:10047800CB004B08C70008300A128A1143230A121E
:100488008A110A3083120313C5000030C6000A120D
:100498008A11E3250A128A1164009E30831203131D
:1004A800CB004B08C70007300A128A1143230A12EF
:1004B8008A110A3083120313C5000030C6000A12DD
:1004C8008A11E3250A128A11640066308312031325
:1004D800CB004B08C70006300A128A1143230A12C0
:1004E8008A110A3083120313C5000030C6000A12AD
:1004F8008A11E3250A128A116400703083120313EB
:10050800CB004B08C70005300A128A1143230A1290
:100518008A110A3083120313C5000030C6000A127C
:100528008A11E3250A128A116400D6308312031354
:10053800CB004B08C70003300A128A1143230A1262
:100548008A110A3083120313C5000030C6000A124C
:100558008A11E3250A128A1164006B30831203138F
:10056800CB004B08C70002300A128A1143230A1233
:100578008A110A3083120313C5000030C6000A121C
:100588008A11E3250A128A116400A3308312031327
:10059800CB004B08C70001300A128A1143230A1204
:1005A8008A110A3083120313C5000030C6000A12EC
:1005B8008A11E3250A128A11640064308312031336
:1005C800CB004B08C70000300A128A1143230A12D5
:1005D8008A110A3083120313C5000030C6000A12BC
:1005E8008A11E3250A128A11640032308312031338
:1005F800CB004B08C70000300A128A1143230A12A5
:100608008A110A3083120313C5000030C6000A128B
:100618008A11E3250A128A11640014308312031325
:10062800CB004B08C70000300A128A1143230A1274
:100638008A110A3083120313C5000030C6000A125B
:100648008A11E3250A128A11640083120313C70171
:1006580000300A128A1143230A128A110A308312BF
:100668000313C5000030C6000A128A11E3250A12D6
:100678008A1164008312031310148B170800831265
:100688000313C800C901CA018C118316031311147E
:10069800632B01308312C9070318CA0A0030CA073E
:1006A8004A08803AFF0083307F02031D5D2BE93042
:1006B8004902031C602B612B632B6A2B6A2B831264
:1006C80003138C1D682B692B4D2B6A2B8312031384
:1006D800C901CA018C11983093000130C50000305F
:1006E800C6000A128A112B270A128A11922B01308E
:1006F80083120313C9070318CA0A0030CA074A0835
:10070800803AFF0083307F02031D8C2BE9304902B9
:10071800031C8F2B902B922B992B992B831203134D
:100728008C1D972B982B7B2B992B83120313C901B4
:10073800CA018C11480893000130C5000030C6007A
:100748000A128A112B270A128A11C12B013083122F
:100758000313C9070318CA0A0030CA074A08803AAF
:10076800FF0083307F02031DBB2BE9304902031CC5
:10077800BE2BBF2BC12BC82BC82B831203138C1D78
:10078800C62BC72BAA2BC82B83120313C901CA0176
:100798008C11470893000130C5000030C6000A12CA
:1007A8008A112B270A128A11F02B013083120313A6
:1007B800C9070318CA0A0030CA074A08803AFF0066
:1007C80083307F02031DEA2BE9304902031CED2B1D
:1007D800EE2BF02BF72BF72B831203138C1DF52B25
:1007E800F62BD92BF72B83120313C901CA018C11DD
:1007F800831603131115162C01308312C907031829
:10080800CA0A0030CA074A08803AFF0083307F02CC
:10081800031D102CE9304902031C132C142C162C30
:100828001D2C1D2C831203138C1D1B2C1C2C002C1F
:100838001D2C83120313C901CA018C110800003052
:10084800831203130C180130F0007008F1000C102B
:10085800B0308E003C308F008518332C342C672C38
:100868007908013A031D392C3A2C672CB508031D69
:100878003E2C3F2C672C861C422C432C442CB80160
:100888008618472C482C642CB808031D4C2C4D2C7A
:10089800642C0130F0007008F80764007808283AE2
:1008A800031D572C582C672C0130F0007008831258
:1008B8000313B707F801B8010314B80D672C672CA8
:1008C800F801672C672CFA08031D6B2C6C2C962CEE
:1008D80083120313871C712C722C732CBB0187188D
:1008E800762C772C932CBB08031D7B2C7C2C932C0B
:1008F8000130F0007008BC076400831203133C0841
:10090800283A031D882C892C962C0130F000700899
:10091800BA07BC01BB010314BB0D962C962CBC0175
:10092800962C962C831203133D08013A031D9D2C27
:100938009E2CA42C0130AE070318AF0A0030AF0775
:100948007608013A031DA92CAA2CEC2C0130AC071F
:100958000318AD0A0030AD0717302D0270300319A7
:100968002C02031CB82CB92CC22CBE010314BE0DDA
:10097800C0010314C00DAC01AD01C22C01302D0221
:10098800913003192C02031CCA2CCB2CE92C013002
:10099800B2070318B30A0030B30714303206330421
:1009A800031DD72CD82CEA2C0310061C031403189B
:1009B800DE2CE22C831203130614E52C8312031396
:1009C8000610B201B301EA2CEA2C06140000F12C3F
:1009D80083120313AC01AD01F12C0800F42CF42CA4
:1009E800831203135108031DFA2CF42CD1018B1325
:1009F800003029021A3003192802031C042D052D82
:100A0800242D4F08013ECF0050080318013E003E38
:100A1800D0005008CB004B08C1004F08CB004B0852
:100A2800C2004208CB004B08C70041080A128A11CD
:100A380043230A128A1183120313A601A701242D46
:100A4800003029020A300319280203182C2D2D2DF5
:100A58004C2D4F08FF3ECF0050080318013EFF3EC3
:100A6800D0005008CB004B08C1004F08CB004B0802
:100A7800C2004208CB004B08C70041080A128A117D
:100A880043230A128A1183120313A601A7014C2DCE
:100A98008B17080083120313CB01CC0146084504C9
:100AA8000319572D582D962DCA010314CA0D682D08
:100AB80001300310C50DC60DFF3E031D5D2D01302D
:100AC800C9004908CA07682DC61F6B2D6C2D5C2DFF
:100AD8006E2D6E2D01300310CB0DCC0DFF3E031D86
:100AE8006F2D46084802031D7B2D45084702031C4D
:100AF8007E2D7F2D872D4508C7024608031CC80395
:100B0800C8024B14872D01300310C60CC50CFF3EDC
:100B1800031D882D0130CA02031D932D942D6E2DBF
:100B2800962D962D4C08C601C6074B08C501C5076A
:100B38009D2D080083120313C9000F30C700470812
:100B4800C9054908C70001300310C70DFF3E031D42
:100B5800A82D0310470D813E9F00831603130C1325
:100B6800831203130C13831603139E0183120313BA
:100B78009E019F14BF2D0C1FC22DC32DBF2DC42D48
:100B8800831603131E0883120313C700C8014708FE
:100B9800A0004808A1001E08C700C8014708C800EF
:100BA800C7014708A0070318A10A4808A107210898
:100BB800C601C6072008C501C507E22D0800831233
:100BC8000313C701C8010B2EC901CA0106304A0226
:100BD800403003194902031CF22DF32DF52D052E83
:100BE800052E0130C9070318CA0A0030CA070630A3
:100BF8004A02403003194902031C032E042EF52D26
:100C0800052E0130C7070318C80A0030C807460870
:100C18004802031D112E45084702031C142E152EE9
:100C2800E82D162E08000A128A1188270A128A113E
:100C38000A128A1116270A128A110A128A116F27B4
:100C48000A128A110A128A113F270A128A110A12F5
:100C58008A1151270A128A110A128A1100270A12C8
:100C68008A110A128A1161270A128A110A128A1134
:100C780081270A128A110B178312031310148B177A
:100C8800163083120317850008000B1C4C2E4D2EBE
:100C9800532E0A128A11C5260A128A11532E83125C
:100CA80003138C1C582E592E5F2E0A128A11E72620
:100CB8000A128A115F2E831203130C1C642E652EF0
:100CC8006B2E0A128A1123240A128A116B2E7508B8
:100CD80083120313FF0074088A0073088400720EDD
:100CE8008300FE0E7E0E090083120313C401C001A7
:100CF800BE01B601FA017E30CF000430D000BD013C
:100D0800AE01AF01051500000A3083120313C500B8
:100D18000030C6000A128A11E3250A128A118312CA
:100D280003130511000083120313B701B901B501BC
:100D38008312031705100800FB01F601F701F801FB
:100D4800F901FA0183132030840045300A128A1110
:100D580079270A128A110A128A118D270A128A1112
:100D6800CF000A128A118E270A128A11D0000A129D
:100D78008A118F270A128A11D10083010A128A1157
:100D88001528831203130608F0007008F1000B10F1
:100D98000130F0007008F7077708033A031DD52ED5
:100DA800D62EE42EF7011211D1010314D10D270814
:100DB800A901A9072608A801A807A601A701E62EE8
:100DC8001215E62E0800831203138C1091010130CE
:100DD800A6070318A70A0030A707013027022C30FE
:100DE80003192602031CF92EFA2EFF2E2C30A6001A
:100DF8000130A700FF2E080008308316031788006B
:100E08008030831603139F009E01831203139E01F3
:100E1800831603130C130B17831203130C139F145D
:100E28001F1408008312031385018601EB30831613
:100E38000313850012308600831203138701E23002
:100E48008316031387008316031789010800352FBB
:100E5800013083120313C5020030031CC603C60207
:100E6800352F8312031346084504031D3C2F3D2FDD
:100E78002C2F3E2F08008312031390019010101698
:100E88009012B0308E003C308F00831603130C1480
:100E9800831203130C101010080083160313871510
:100EA80007168030940028308312031394008316A9
:100EB8000313910113309300080083120313920166
:100EC8009101C7308316031392008C148312031305
:100ED8008C10121108008630831603138100FF302E
:100EE8008312031381008B12080064008001840AB6
:100EF80004060319003404067A2F103083160313EE
:100F080096008B150B1008007130831603138F00A1
:080F180008007E3404340134AA
:04400E00F5EFFFFFCC
:00000001FF
