:060000000A128A11122809
:10000800FE00030EF2000408F3000A08F40083124D
:1000180003137F08F5000A128A11172E0A128A1193
:100028006E2E0A128A11E5250A128A118312031309
:10003800C70100300A128A111B230A128A112428C8
:1000480083120313851E29282A282D280615000047
:100058003028061100003028F608031D34283528FA
:1000680040287A08013A031D3A283B284028831281
:100078000313061400004A2883120313B708031D4C
:10008800462847284A28061000004A2883120313E6
:10009800CE0146304E02031C5228532855286E289C
:1000A8006E2803300A128A116C250A128A118312EB
:1000B80003134508A2070318A30A4608A30701303B
:1000C800CD004D08CE0746304E02031C6C286D2823
:1000D80055286E284630C5000030C6002308C801E0
:1000E800C8072208C701C7070A128A111C250A1265
:1000F8008A11831203134608A301A3074508A20126
:10010800A20701302302FE300319220203188D28AA
:100118008E28AA28851A91289228D9280310861D86
:100128000314031898289C288312031386159F2804
:100138008312031386113230C5000030C6000A123C
:100148008A11B1250A128A11D928D92802308312B6
:1001580003132302543003192202031CB428B528C0
:10016800B82886110000D92802308312031323020D
:100178004430031922020318C228C328D9280230A0
:1001880023021D3003192202031CCB28CC28D928AE
:10019800851ECF28D028D32886150000D928861197
:1001A8000000D928D928D928D928831203133A0856
:1001B800013A031DE028E128F428FA08031DE52880
:1001C800E628F4280714000083120313051600001C
:1001D8008312031386160000F9010314F90DF4289D
:1001E800831203133A08023A031DFB28FC2823292B
:1001F800FA08031D002901292329051500000A30E2
:1002080083120313C5000030C6000A128A11B125F3
:100218000A128A11831203130511000083120313B3
:100228000710000083120313051200008312031342
:1002380086120000F90183120313BA0123298518D5
:1002480026292729F2297908013A031D2C292D2965
:10025800F2293708013A031D32293329BE298312AE
:100268000317051464007529FA010314FA0DF60141
:100278000314F60D333083120313CD004D08C70065
:1002880003300A128A111B230A128A1101308312C1
:100298000313C5000030C6000A128A11B1250A12DC
:1002A8008A114C3083120313CD004D08C700043067
:1002B8000A128A111B230A128A11013083120313AE
:1002C800C5000030C6000A128A11B1250A128A1127
:1002D80083120313B6010314B60DC4010314C40D2D
:1002E8007C29831203133608031D7B2938297C29AE
:1002F800BE08031D802981298D294408013A031D60
:10030800862987298D290A128A11C0240A128A117E
:100318002428831203134008013A031D94299529C0
:100328002428BD010314BD0DB908031D9C299D296E
:10033800AB290A128A111C220A128A11831203138A
:10034800B9010314B90DB5010314B50DAB29F601B4
:100358000A302F028C3003192E02031CB429B52948
:1003680024280A128A1146260A128A1124282428C7
:1003780024282428831203133708023A031DC529A9
:10038800C6292428640083120313BD010314BD0D7C
:10039800B5010314B50DB908031DD329D429DF29E4
:1003A8000A128A111C220A128A1183120313B90134
:1003B8000314B90DDF29F6010A302F028C30031916
:1003C8002E02031CE829E92924280A128A11462644
:1003D8000A128A112428242824282428851CF5296F
:1003E800F629FE29C70100300A128A111B230A12B6
:1003F8008A112428851C012A022A24283608013A51
:10040800031D072A082A2428092A83120313C7016F
:1004180000300A128A111B230A128A11092A092A92
:10042800242824282428242824280A128A11122857
:10043800FC3083120313CB004B08C70008300A12A4
:100448008A111B230A128A11643083120313C50010
:100458000030C6000A128A11B1250A128A119E308C
:1004680083120313CB004B08C70007300A128A1106
:100478001B230A128A11643083120313C50000304B
:10048800C6000A128A11B1250A128A11663083122F
:100498000313CB004B08C70006300A128A111B232E
:1004A8000A128A11643083120313C5000030C60093
:1004B8000A128A11B1250A128A11703083120313A5
:1004C800CB004B08C70005300A128A111B230A12F9
:1004D8008A11643083120313C5000030C6000A1263
:1004E8008A11B1250A128A11D63083120313CB0060
:1004F8004B08C70003300A128A111B230A128A11FB
:10050800643083120313C5000030C6000A128A1132
:10051800B1250A128A116B3083120313CB004B08E2
:10052800C70002300A128A111B230A128A1164308A
:1005380083120313C5000030C6000A128A11B125C0
:100548000A128A11A33083120313CB004B08C70089
:1005580001300A128A111B230A128A11643083128D
:100568000313C5000030C6000A128A11B1250A1209
:100578008A11643083120313CB004B08C700003084
:100588000A128A111B230A128A1164308312031378
:10059800C5000030C6000A128A11B1250A128A1154
:1005A800323083120313CB004B08C70000300A1205
:1005B8008A111B230A128A11643083120313C5009F
:1005C8000030C6000A128A11B1250A128A111430A5
:1005D80083120313CB004B08C70000300A128A119C
:1005E8001B230A128A11643083120313C5000030DA
:1005F800C6000A128A11B1250A128A11831203133E
:10060800C70100300A128A111B230A128A116430AA
:1006180083120313C5000030C6000A128A11B125DF
:100628000A128A118312031310148B1708008312FD
:100638000313C800C901CA018C11831603131114CE
:100648003B2B01308312C9070318CA0A0030CA07B6
:100658004A08803AFF0083307F02031D352BE930BA
:100668004902031C382B392B3B2B422B422B83127C
:1006780003138C1D402B412B252B422B8312031374
:10068800C901CA018C11983093000130C5000030AF
:10069800C6000A128A11F9260A128A116A2B013039
:1006A80083120313C9070318CA0A0030CA074A0885
:1006B800803AFF0083307F02031D642BE930490232
:1006C800031C672B682B6A2B712B712B8312031366
:1006D8008C1D6F2B702B532B712B83120313C901A5
:1006E800CA018C11480893000130C5000030C600CB
:1006F8000A128A11F9260A128A11992B01308312DB
:100708000313C9070318CA0A0030CA074A08803AFF
:10071800FF0083307F02031D932BE9304902031C3D
:10072800962B972B992BA02BA02B831203138C1D90
:100738009E2B9F2B822BA02B83120313C901CA0166
:100748008C11470893000130C5000030C6000A121A
:100758008A11F9260A128A11C82B01308312031351
:10076800C9070318CA0A0030CA074A08803AFF00B6
:1007780083307F02031DC22BE9304902031CC52BBD
:10078800C62BC82BCF2BCF2B831203138C1DCD2B3D
:10079800CE2BB12BCF2B83120313C901CA018C11A5
:1007A800831603131115EE2B01308312C9070318A2
:1007B800CA0A0030CA074A08803AFF0083307F021D
:1007C800031DE82BE9304902031CEB2BEC2BEE2B25
:1007D800F52BF52B831203138C1DF32BF42BD82B3D
:1007E800F52B83120313C901CA018C1108000030CC
:1007F800831203130C180130F0007008F1000C107C
:10080800B0308E003C308F0085180B2C0C2C3C2C03
:100818007908013A031D112C122C3C2CB508031D34
:10082800162C172C3C2C861C1A2C1B2C1C2CB801A3
:1008380086181F2C202C392CB808031D242C252C95
:10084800392C0130F0007008F8077808283A031DA1
:100858002E2C2F2C3C2C0130F0007008B707F80123
:10086800B8010314B80D3C2C3C2CF8013C2C3C2C52
:10087800FA08031D402C412C662C871C442C452C5F
:10088800462CBB018718492C4A2C632CBB08031D36
:100898004E2C4F2C632C0130F0007008BC073C082C
:1008A800283A031D582C592C662C0130F00070088A
:1008B800BA07BC01BB010314BB0D662C662CBC0136
:1008C800662C662C3D08013A031D6B2C6C2C722C8F
:1008D8000130AE070318AF0A0030AF077608013AB7
:1008E800031D772C782CBA2C0130AC070318AD0AFD
:1008F8000030AD0717302D02703003192C02031C8D
:10090800862C872C902CBE010314BE0DC001031445
:10091800C00DAC01AD01902C01302D0291300319AE
:100928002C02031C982C992CB72C0130B207031801
:10093800B30A0030B307143032063304031DA52C64
:10094800A62CB82C0310061C03140318AC2CB02CCE
:10095800831203130614B32C831203130610B20177
:10096800B301B82CB82C06140000BF2C8312031353
:10097800AC01AD01BF2C0800C22CC22C831203139A
:100988005108031DC82CC22CD1018B130030290239
:100998001A3003192802031CD22CD32CF22C4F082E
:1009A800013ECF0050080318013E003ED000500819
:1009B800CB004B08C1004F08CB004B08C2004208CF
:1009C800CB004B08C70041080A128A111B230A12E0
:1009D8008A1183120313A601A701F22C0030290201
:1009E8000A30031928020318FA2CFB2C1A2D4F0879
:1009F800FF3ECF0050080318013EFF3ED0005008CC
:100A0800CB004B08C1004F08CB004B08C20042087E
:100A1800CB004B08C70041080A128A111B230A128F
:100A28008A1183120313A601A7011A2D8B17080038
:100A380083120313CB01CC01460845040319252D65
:100A4800262D642DCA010314CA0D362D013003105A
:100A5800C50DC60DFF3E031D2B2D0130C9004908E9
:100A6800CA07362DC61F392D3A2D2A2D3C2D3C2D6F
:100A780001300310CB0DCC0DFF3E031D3D2D460864
:100A88004802031D492D45084702031C4C2D4D2DD6
:100A9800552D4508C7024608031CC803C8024B1455
:100AA800552D01300310C60CC50CFF3E031D562DF5
:100AB8000130CA02031D612D622D3C2D642D642D69
:100AC8004C08C601C6074B08C501C5076B2D0800B1
:100AD80083120313C9000F30C7004708C905490826
:100AE800C70001300310C70DFF3E031D762D03100C
:100AF800470D813E9F00831603130C1383120313C3
:100B08000C13831603139E01831203139E019F1473
:100B18008D2D0C1F902D912D8D2D922D8316031345
:100B28001E0883120313C700C8014708A00048081D
:100B3800A1001E08C700C8014708C800C701470828
:100B4800A0070318A10A4808A1072108C601C6077B
:100B58002008C501C507B02D080083120313C7017B
:100B6800C801D92DC901CA0106304A02403003190B
:100B78004902031CC02DC12DC32DD32DD32D013007
:100B8800C9070318CA0A0030CA0706304A024030AB
:100B980003194902031CD12DD22DC32DD32D0130A9
:100BA800C7070318C80A0030C80746084802031DCB
:100BB800DF2D45084702031CE22DE32DB62DE42D59
:100BC80008000A128A1156270A128A110A128A1173
:100BD800E4260A128A110A128A113D270A128A117A
:100BE8000A128A110D270A128A110A128A111F275E
:100BF8000A128A110A128A11CE260A128A110A12B8
:100C08008A112F270A128A110A128A114F270A12EB
:100C18008A110B178312031310148B1712308312C7
:100C28000317850008000B1C1A2E1B2E212E0A12F2
:100C38008A1193260A128A11212E831203138C1CFF
:100C4800262E272E2D2E0A128A11B5260A128A114F
:100C58002D2E831203130C1C322E332E392E0A121A
:100C68008A11FB230A128A11392E7508831203137D
:100C7800FF0074088A0073088400720E8300FE0E59
:100C88007E0E090083120313C401C001BE01B60120
:100C9800FA017E30CF000430D000BD01AE01AF01B3
:100CA800051500000A3083120313C5000030C60082
:100CB8000A128A11B1250A128A1183120313051127
:100CC800000083120313B701B901B501831203179A
:100CD80005100800FB01F601F701F801F901FA0116
:100CE80083132030840045300A128A1147270A12DC
:100CF8008A110A128A115B270A128A11CF000A1276
:100D08008A115C270A128A11D0000A128A115D27FB
:100D18000A128A11D10083010A128A111528831236
:100D280003130608F0007008F1000B100130F00002
:100D38007008F7077708033A031DA32EA42EB22ED6
:100D4800F7011211D1010314D10D2708A901A90730
:100D58002608A801A807A601A701B42E1215B42ECB
:100D68000800831203138C1091010130A6070318A1
:100D7800A70A0030A707013027022C3003192602E2
:100D8800031CC72EC82ECD2E2C30A6000130A7007C
:100D9800CD2E08000830831603178800803083168C
:100DA80003139F009E01831203139E0183160313EE
:100DB8000C130B17831203130C139F141F14080032
:100DC8008312031385018601EB3083160313850014
:100DD80012308600831203138701E230831603134F
:100DE80087008316031789010800032F0130831237
:100DF8000313C5020030031CC603C602032F831267
:100E0800031346084504031D0A2F0B2FFA2E0C2F37
:100E18000800831203139001901010169012B0303E
:100E28008E003C308F00831603130C1483120313B7
:100E38000C1010100800831603138715071680304E
:100E4800940028308312031394008316031391012E
:100E58001330930008008312031392019101C730E5
:100E68008316031392008C14831203138C1012112F
:100E780008008630831603138100FF3083120313A2
:100E880081008B12080064008001840A040603199B
:100E980000340406482F10308316031396008B1570
:100EA8000B1008007130831603138F0008007E347E
:040EB80004340134C9
:04400E00F5EFFFFFCC
:00000001FF
